:100C05005468616E6B7320546F00456E672E536197
:100C150066696E617A00456E672E412D456C73617C
:100C2500796564004D4144452042590027353030EF
:100C35003133205445414D2700534331005343324E
:100C450000534333005343003A00446F2075207727
:100C5500616E742074657374203F005945533A4F93
:100C65004B004E4F3A454449540054455354494E60
:100C750047210027737420484F4C4520414E474576
:100C85004C0053617665005041544348006D4C005B
:100C9500205049524F554400486F75720070756D6C
:100CA50062696E672E2E006F666600536176652059
:100CB50031004F4B0045444954005361766520325D
:100CC5000053617665203300706F736974696F6EC8
:100CD500004F4646006675636B0044656D6F206D79
:100CE5006F6F64210054696D6520636C65617220C6
:100CF500210044656D6F204F4E20210044656D6FC6
:100D0500204F464620210077617465722073656E19
:0F0D1500736F7200204F4E21004F464620210081
:10101900012201013301013401013501012F1E01B2
:10102900305A0131AA010C00012700012800013DB5
:1010390000010D00013C01013201012901014801B2
:10104900042B000000000423000000000238000502
:10105900043E0036EE80041E00000000040E00006D
:101069000000040800000000012A01023A00000201
:1010790036000502120005021400050216000502D9
:10108900180000021A0000021C00000242000002BF
:0710990044000002460000C4
:0814ED008FA0D2907F0A7E005F
:1014F500E4FDFCC3ED9FEE6480F8EC648098501524
:10150500E4FBFA0BBB00010AEB64644A70F50DBD00
:0515150000010C80DE66
:01151A0022AE
:07164A007E001214F57F3051
:08165100C2911214EDC29022B7
:0C156F007528007F011216517D037F01DA
:10157B008F5EA905E55EB40105E924808008E55E70
:0B158B00B40207E924C0FF1216512231
:10154600E4F5A0C2917FC8FE12164C7F3212164AED
:101556007F6E12164A7F381216517F0C1216517F73
:09156600011216517F0602165114
:08167200D2911214EDC2902286
:0614BC007BFF7A0C7905AC
:0614C2008B5E8A5F896069
:1014C800E4F561F562AB5EAA5FA960856282856119
:1014D80083120037FF600D1216720562E56270E52F
:0414E800056180E139
:0114EC0022DD
:040D24008E568F5701
:100D2800E4755B10755A27F559F558F55C755D0142
:100D3800AE56AF57E4FCFDAB5BAA5AA959A85812A6
:100D48000168E47B0AFAF9F8120168AC00AD01AE5B
:100D580002AF031202310D9E000000000DD000000A
:100D680000010DD4000000020DD8000000030DDCC6
:100D7800000000040DE0000000050DE4000000067E
:100D88000DE8000000070DEC000000080DF0000061
:100D9800000900000DF5E47F0AFEFDFCAB5BAA5AD2
:100DA800A959A8581200DDA804A905AA06AB07AEE0
:100DB80056AF57E4FCFD120168E4FBFAF9F8C312D8
:100DC80001FA60297F3080227F31801E7F32801AAD
:100DD8007F3380167F3480127F35800E7F36800AFD
:100DE8007F3780067F3880027F39121672AF5BAE7C
:100DF8005AAD59AC58E47B0AFAF9F81201688F5BCE
:100E08008E5A8D598C58055DE55D7002055CD3944A
:100E180005E55C648094805003020D38E55745561B
:070E280070057F3012167205
:010E2F0022A0
:050006007F1C021651F1
:05000E007F18021651ED
:100837001215F3D2941215467F007E01120016128C
:1008470015771214BC7D027F0212157B7BFF7A0C91
:10085700790F1214C27FB87E0B1213EB12157212A6
:1008670014BC7D027F0212157B7BFF7A0C791B1269
:1008770014C27FB87E0B1213EB7F011216517D0451
:100887007F0112157B7BFF7A0C79291214C27D0236
:100897007F0212157B7BFF7A0C79311214C27FB865
:1008A7007E0B1213EB7F011216511209ACE528607B
:1008B7000612048FE4F528E47B02FAF9F8AF41AE9B
:1008C70040AD3FAC3E120168A804A905AA06AB07D4
:1008D700C3E5119521FFE5109520FEE50F951FFD56
:1008E700E50E951EFCD31201FA500F8511218510D4
:1008F70020850F1F850E1E1210A1E4FD7F01121522
:100907007B7BFF7A0C793E1214C2E4FD7F0212153D
:100917007BAF331212847D047F0112157B7BFF7A34
:100927000C79421214C27D047F0212157BAF341278
:1009370012847D087F0112157B7BFF7A0C794612A2
:1009470014C27D087F0212157BAF35121284E5337E
:100957006405600FE528700B752701852F0CAF33F1
:10096700121621E5346405600FE528700B75270220
:1009770085300CAF34121621E5356405600FE52884
:10098700700B75270385310CAF3512162120B30480
:10099700C2B58002D2B57FD07E071213EB7F01125A
:0509A70016510208B426
:10048F00755501753C01E53C24FE600C14600E248B
:10049F0002700F853322800D853422800885352226
:1004AF008003753C017F0112165120B109E52264CA
:1004BF0004600302054620B00E05227F011216517B
:1004CF007F3C7E001213EB20B40E15227F01121613
:1004DF00517F3C7E001213EBE522D3940540037548
:1004EF002201E522C394015003752205120ADB7F16
:1004FF001E7E001213EBE4FD7F0112157B7F3C1271
:10050F0016727D0F7F0112157B7F3E121672121528
:10051F00777BFF7A0C794A1214C2AF3C7E00120D22
:10052F00247BFF7A0C794D1214C21211A47F1E7E08
:10053F00001213EB0204B9E53C24FE60111460199C
:10054F0024027023852233AD33E4FFFE801485220D
:10055F0034AD347F017E008009852235AD357F02B1
:10056F007E001212DD8003753C017F1E7E00121388
:10057F00EB7F0112165120B1077FC27E011213EBE0
:10058F00053CE53CD394035003020495753C01E40C
:10059F00F528E5557003020695E4FD7F0112157BE2
:1005AF007BFF7A0C794F1214C2E4FD7F0212157B88
:1005BF007BFF7A0C79601214C27D097F0212157BC2
:1005CF007BFF7A0C79671214C275320130B10302C6
:1005DF0006897F011216517D057F0112157B7BFF66
:1005EF007A0C796F1214C27D017F0212157B7BFF8B
:1005FF007A0C794A1214C2AF327E00120D247F6436
:10060F007E001213EBE53224FE601214601A2402EE
:10061F00701F85332A852F0C752701801485342A86
:10062F0085300C752702800985352A85310C752791
:10063F0003E52A24FE60101460162402701DE48561
:10064F00130B85120A8010E485150B85140A800799
:10065F00E485170B85160AF509F508AF0BAE0AAD41
:10066F0009AC08120EEC7F011216510532E532D398
:10067F00940350030205E1E4F5553095030205A1FB
:0E068F00E4F5550205A17532017F01021651F6
:10162100EF24FE600A14600A2402700902141E02EB
:0616310014541213AE2256
:100ADB00E52224FE601514601A14602524036003BC
:100AEB00020C04309503020C04800E309503020CAB
:100AFB00048006309503020C047F0112165102028A
:100B0B006B309503020C04E53C24FE600C14600E64
:100B1B002402700F852F0D800D85300D80088531D7
:100B2B000D8003753C017F0112165120B103020B9E
:100B3B00FF20B007050D7F0112165120B407150DCC
:100B4B007F01121651E50DD394B44003750D01E5E9
:100B5B000DC394015003750DB4AF0D1211257F0514
:100B6B007E001213EBE4FD7F0212157B7F3C121605
:100B7B00727D0F7F0212157B7F3E1216727D027FF4
:100B8B000112157B7BFF7A0C79781214C27F057EDC
:100B9B00001213EB7D017F0112157BAF3C7E00121F
:100BAB000D247D057F0212157BAF0D7E00120D24E7
:100BBB007F057E001213EBE53C24FE6010146016DB
:100BCB0024027027850D2FAD2F7F038010850D30EC
:100BDB00AD307F048007850D31AD317F057E00126E
:100BEB0012DD7F0A7E001213EB8003753C0112139A
:0A0BFB00E7020B367F0112165122AB
:10026B00E52224FE601E14603224027043AE12AFEE
:10027B00137C007D051200768E388F3985183A85F0
:10028B00193B802CAE14AF157C007D051200768EC9
:10029B00388F39851A3A851B3B8015AE16AF177C04
:1002AB00007D051200768E388F39851C3A851D3BF3
:1002BB0020B10302035620B01074052539F539E43B
:1002CB003538F5387F0112165120B41174FB2539DE
:1002DB00F53974FF3538F5387F011216511213E7D3
:1002EB00E4FD7F0212157B7F3C1216727D0F7F029D
:1002FB0012157B7F3E1216727D027F0112157B7BDE
:10030B00FF7A0C79871214C2AF227E00120D247B68
:10031B00FF7A0C798C1214C21213E77D057F02123F
:10032B00157BAF39AE38120D247BFF7A0C79921204
:10033B0014C27F327E001213EBAE38AF397C007DD6
:10034B00051200888E368F370202BB7FF47E0102C6
:10035B0003DC20B1030203E220B00D053BE53B704B
:10036B0002053A7F0112165120B40DE53B153B7087
:10037B0002153A7F011216511213E7E4FD7F0212A8
:10038B00157B7F3C1216727D0F7F0212157B7F3E11
:10039B001216727D017F0112157B7BFF7A0C798718
:1003AB001214C2AF227E00120D247BFF7A0C7995BA
:1003BB001214C21213E77D057F0212157BAF3BAE01
:1003CB003A120D247BFF7A0C799D1214C27F237E87
:1003DB00001213EB02035D7F2C7E011213EB7F01E6
:1003EB00121651E52224FE60391460652402600365
:1003FB0002048E853612853713853A18853B19AD65
:10040B00197F107E001212DDE518FD7F117E0012A0
:10041B0012DDAD137F127E001212DDE512FD7F138C
:10042B00805C853614853715853A1A853B1BAD1BC9
:10043B007F147E001212DDE51AFD7F157E0012126D
:10044B00DDAD157F167E001212DDE514FD7F1780E2
:10045B002D853616853717853A1C853B1DAD1D7FBF
:10046B00187E001212DDE51CFD7F197E001212DDD5
:10047B00AD177F1A7E001212DDE516FD7F1B7E0085
:04048B001212DD224A
:10141E00AE42AF43AB07AA06C3E52E9BFBE52D9A62
:10142E00FAE52C9400F9E52B9400F8AE18AF19E408
:10143E00FCFDC31201FA400DAE12AF13120EE98578
:06144E002D42852E432211
:10145400AE44AF45AB07AA06C3E52E9BFBE52D9A28
:10146400FAE52C9400F9E52B9400F8AE1AAF1BE4CE
:10147400FCFDC31201FA400DAE14AF15120EE9853E
:061484002D44852E4522D7
:1013AE00AE46AF47AB07AA06C3E52E9BFBE52D9ACB
:1013BE00FAE52C9400F9E52B9400F8AE1CAF1DE471
:1013CE00FCFDC31201FA4010AE16AF17E4FCFD127D
:0913DE000EEC852D46852E4722F8
:030EE900E4FCFD29
:080EEC008F598E588D578C566A
:100EF40085115D85105C850F5B850E5AC3E51195E0
:100F04005DFFE510955CFEE50F955BFDE50E955ADA
:100F1400FCE47BE87A03F9F8120168AB59AA58A9F2
:100F240057A856D31201FA4057E52870537F01128F
:100F340016517D047F0112157B7BFF7A0C79A21276
:100F440014C27D067F0212157BE52724FE600F1470
:100F54006014240270197BFF7A0C793E800E7BFFAB
:100F64007A0C794280067BFF7A0C79461214C2AF60
:100F74000C1211257FF47E011213EBC292020F00B2
:090F8400D2927F647E000213EB9F
:10128400EF24FE601F14603024FE60432404704881
:10129400C3E52E9543FFE52D9542FEC3E5199FFF57
:1012A400E5188026C3E52E9545FFE52D9544FEC33C
:1012B400E51B9FFFE51A8012C3E52E9547FFE52D38
:1012C4009546FEC3E51D9FFFE51C9EFE020D247B93
:0912D400FF7A0C79AC1214C2225D
:1011A400E52224FE601514601A14602F1460442490
:1011B40004705F7BFF7A0C79B0800E7BFF7A0C7928
:1011C400BF80067BFF7A0C79C61214C2E4FD7F024D
:1011D40012157B7BFF7A0C79B780067BFF7A0C793A
:1011E400CD1214C27D0C7F0212157B7BFF7A0C7921
:1011F400BA80257BFF7A0C79D61214C27D0C7F024B
:1012040012157BE4FD7F0212157B7BFF7A0C79B704
:0C12140080067BFF7A0C79DA1214C222EB
:1010A100AD2E7F067E001212DDAF2EAE2DAD2CAC23
:1010B1002B780812020BAD077F077E001212DDAFFD
:1010C1002EAE2DAD2CAC2B781012020BAD077F0884
:1010D1007E001212DDAF2EAE2DAD2CAC2B78181286
:1010E100020BAD077F097E001212DDAD437F707EDA
:1010F100001212DDE542FD7F717E001212DDAD4569
:101101007F727E001212DDE544FD7F737E001212B4
:10111100DDAD477F747E001212DDE546FD7F757EF1
:04112100000212DDD9
:02151B008F55EA
:10151D00E4F556F557EF2401FFE433FE121220EFE8
:10152D004257E4E557755700F556AF557E00121238
:08153D0020EF4257AE56AF57F4
:011545002283
:1009AC00C2AFE4FFFE1212208F337F017E001212C1
:1009BC00208F347F027E001212208F357F037E0041
:1009CC001212208F2F7F047E001212208F307F0591
:1009DC007E001212208F31E4F52EF52DF52CF52B1F
:1009EC007F09FE121220E52E4FF52EE52DF52DE593
:1009FC002CF52CE52BF52BAF2EAE2DAD2CFC780861
:100A0C0012021E8F2E8E2D8D2C8C2B7F087E0012A9
:100A1C001220E52E4FF52EE52DF52DE52CF52CE5C8
:100A2C002BF52BAF2EAE2DAD2CFC780812021E8FA1
:100A3C002E8E2D8D2C8C2B7F077E00121220E52EF6
:100A4C004FF52EE52DF52DE52CF52CE52BF52BAFE3
:100A5C002EAE2DAD2CFC780812021E8F2E8E2D8DF5
:100A6C002C8C2B7F067E00121220E52E4FF52EE5E6
:100A7C002DF52DE52CF52CE52BF52B7F1012151BE8
:100A8C008E188F197F1412151B8E1A8F1B7F18123C
:100A9C00151B8E1C8F1D7F1212151B8E128F137F30
:100AAC001612151B8E148F157F1A12151B8E168F8E
:100ABC00177F7012151B8E428F437F7212151B8E7F
:0F0ACC00448F457F7412151B8E468F47D2AF2281
:10112500EF75F017A4FFC374DF9FFF74FC95F0FE05
:10113500EFF55EAF06EFF55F851163851062850FEC
:1011450061850E60C3E5119563FFE5109562FEE5C7
:101155000F9561FDE50E9560FCE47B64FAF9F8D323
:051165001201FA4039FF
:10116A00851167851066850F65850E64855F8D8597
:10117A005E8BD28ED294C3E5119567FFE510956612
:10118A00FEE50F9565FDE50E9564FCE47B14FAF91E
:09119A00F8D31201FA40A880DD2F
:0111A3002229
:1015F30075891175A88A758CF8758A30D2A8D28836
:07160300C28AC28ED28C22C4
:0413E7007F147E00F1
:0413EB008F828E83DC
:1013EF00851161851060850F5F850E5EC3E51195D0
:1013FF0061FFE5109560FEE50F955FFDE50E955ECB
:0E140F00FCAB82AA83E4F9F8D31201FA50DE96
:01141D0022AC
:03000B00020E30B2
:100E3000C0E0C0F0C083C082C0D075D000C000C088
:100E400001C002C003C004C005C006C007E51124EC
:100E500001F511E43510F510E4350FF50FE4350E0A
:100E6000F50EC28CC28D758CF8758A39D28CC3E5AB
:100E7000119526FFE5109525FEE50F9524FDE50E5D
:100E80009523FCAB41AA40A93FA83EC31201FA50EA
:100E90003DE52E2401F52EE4352DF52DE4352CF518
:100EA0002CE4352BF52B851126851025850F2485FF
:100EB0000E23E52970181215727BFF7A0C79DF1268
:100EC00014C27FDC7E0512160A7F01121651D0076C
:100ED000D006D005D004D003D002D001D000D0D0AD
:090EE000D082D083D0F0D0E032C2
:03001B0002168A40
:07168A00C294C28EC28F3230
:0300130002165979
:0D16590020B304C2B580F9D2B575A80032E7
:0300030002069D55
:10069D00C0E0C0F0C083C082C0D075D000C000C023
:0D06AD0001C002C003C004C005C006C007A4
:1006BA00754E06752801C2897F327E0012160A20FD
:1006CA009539752E00752D00752C00752B00754E09
:1006DA0006AF4E7E00E4FD1212DD054EE54ED394C0
:1006EA000940EE12156F7BFF7A0C79EA1214C27F69
:1006FA00B87E0B12160A7F011216517F327E001243
:10070A00160A20B1737528007F327E0012160AE598
:10071A0029603212156F7BFF7A0C79F71214C275B1
:10072A00411075400E753F00753E007FB87E0B1272
:10073A00160AE52970047F0180027F008F297F0154
:10074A0012165180331215727BFF7A0D7901121439
:10075A00C27541807540EE753F36753E007FB87EA2
:10076A000B12160AE52970047F0180027F008F2987
:10077A007F0112165175280030B00302081C752833
:10078A00007F327E0012160AE54860447528007F11
:10079A00011216517D017F0112157B7BFF7A0D79BB
:1007AA000C1214C27D057F0212157B7BFF7A0D792C
:1007BA00191214C2D2AA7FB87E0B12160AE5487023
:1007CA00047F0180027F008F487F01121651804208
:1007DA007F011216517D017F0112157B7BFF7A0D75
:1007EA00790C1214C27D057F0212157B7BFF7A0DEC
:1007FA00791E1214C2C2AA7FB87E0B12160AE548E5
:10080A0070047F0180027F008F487F0112165175A4
:02081A002800B4
:10081C00D007D006D005D004D003D002D001D00030
:0B082C00D0D0D082D083D0F0D0E032DA
:011691002236
:10159600C2B7D2B67F017E00121666D2B77F017E31
:1015A60000121666C2B67F017E00121666C2B72208
:1015D500C2B77F017E00121666C2B67F017E001279
:0E15E5001666D2B77F017E00121666D2B622BD
:0215B6008F5C48
:1015B800E4F55DE55C3392B6121637E55C25E0F597
:0D15C8005C055DE55DC3940840E90216373F
:021331008F5CCF
:10133300E4F55ED2B6F55D7F017E00121666D2B784
:101343007F017E00121666E55E25E0F55EA2B6E437
:1013530033425EC2B7055DE55DC3940840D9E55CE1
:0D136300B4010512167A8003121682AF5EE7
:01137000225A
:101637007F017E00121666D2B77F017E0012166602
:03164700C2B72205
:08167A00C2B6121637D2B622E7
:08168200D2B6121637D2B722CE
:050016008E728F7322C1
:0212DD008D562C
:1012DF007558A0C3EF9573EE95725045EFF557E52E
:1012EF00739400E57294084005EEF5598007AF0638
:1012FF00EE25E04258121596AF581215B6D3E57386
:10130F009400E57294084005AF591215B6AF571205
:10131F0015B6AF561215B61215D57F0A7E001216E6
:01132F000AB3
:01133000229A
:10122000E4F559755AA0C3EF9573EE95725052EFDD
:10123000F558E5739400E57294084005EEF55B807F
:1012400007AF06EE25E0425A121596AF5A1215B6B0
:10125000D3E5739400E57294084005AF5B1215B6B0
:10126000AF581215B6121596E55A4401FF1215B67D
:10127000E4FF1213318F591215D57F0A7E00121622
:0312800066AF59FD
:011283002248
:101371008E688F698B6A8A6B896CAB6AAA6BA96C60
:1013810012001EFDAF69AE681212DD7401256CF505
:101391006CE4356BF56B0569E56970020568AB6A4C
:0D13A100AA6BA96C90FFFF12003770CE22DE
:0A148A008E6D8F6E8B6F8A70897172
:10149400AF6EAE6D121220AB6FAA70A971EF12007D
:1014A4006474012571F571E43570F570056EE56EAF
:0714B4007002056DEF70D915
:0114BB00220E
:0C166600EF4E6007EF1F70F81E80F522A9
:10160A00AD07AC06ED4C600E7F707E00121666EDDB
:07161A001D70F11C80EE229F
:03000000020F8D5F
:0C0F8D00787FE4F6D8FD758173020FD464
:10001E00BB010689828A83E0225002E722BBFE02E0
:09002E00E32289828A83E4932213
:10003700BB010CE58229F582E5833AF583E022507E
:1000470006E92582F8E622BBFE06E92582F8E222C8
:0D005700E58229F582E5833AF583E49322E2
:10006400BB010689828A83F0225002F722BBFE017B
:02007400F32275
:10007600EF8DF0A4A8F0CF8CF0A428CE8DF0A42E9E
:02008600FE2258
:10008800BC000BBE0029EF8DF084FFADF022E4CC5C
:10009800F875F008EF2FFFEE33FEEC33FCEE9DEC25
:1000A800984005FCEE9DFE0FD5F0E9E4CEFD22ED6B
:1000B800F8F5F0EE8420D21CFEADF075F008EF2FB5
:1000C800FFED33FD4007985006D5F0F222C398FDA6
:0500D8000FD5F0EA2243
:1000DD00E88FF0A4CC8BF0A42CFCE98EF0A42CFCC2
:1000ED008AF0EDA42CFCEA8EF0A4CDA8F08BF0A440
:1000FD002DCC3825F0FDE98FF0A42CCD35F0FCEB9F
:10010D008EF0A4FEA9F0EB8FF0A4CFC5F02ECD3963
:0F011D00FEE43CFCEAA42DCE35F0FDE43CFC22D0
:10012C0075F008758200EF2FFFEE33FECD33CDCC8A
:10013C0033CCC58233C5829BED9AEC99E58298400D
:10014C000CF582EE9BFEED9AFDEC99FC0FD5F0D6EA
:10015C00E4CEFBE4CDFAE4CCF9A88222B800C1B914
:10016C000059BA002DEC8BF084CFCECDFCE5F0CB52
:10017C00F97818EF2FFFEE33FEED33FDEC33FCEB8B
:10018C0033FB10D703994004EB99FB0FD8E5E4F946
:10019C00FA227818EF2FFFEE33FEED33FDEC33FC33
:1001AC00C933C910D7059BE99A4007EC9BFCE99A27
:1001BC00F90FD8E0E4C9FAE4CCFB2275F010EF2F6C
:1001CC00FFEE33FEED33FDCC33CCC833C810D7076C
:1001DC009BEC9AE899400AED9BFDEC9AFCE899F8A7
:0E01EC000FD5F0DAE4CDFBE4CCFAE4C8F9223A
:1001FA00EB9FF5F0EA9E42F0E99D42F0E89C45F05B
:01020A0022D1
:10020B00E8600FECC313FCED13FDEE13FEEF13FFD1
:03021B00D8F122F5
:10021E00E8600FEFC333FFEE33FEED33FDEC33FC3E
:03022E00D8F122E2
:10023100D083D082E4937012740193700DA3A393C1
:10024100F8740193F5828883E4737402936C7012DD
:100251007403936D700C7404936E70067405936F40
:0A02610060DDA3A3A3A3A3A380CA3A
:100F9900020837E493A3F8E493A34003F68001F22F
:100FA90008DFF48029E493A3F85407240CC8C33359
:100FB900C4540F4420C8834004F456800146F6DF28
:100FC900E4800B0102040810204080901019E47E8F
:100FD900019360BCA3FF543F30E509541FFEE4931D
:100FE900A360010ECF54C025E060A840B8E493A3E4
:100FF900FAE493A3F8E493A3C8C582C8CAC583CA0F
:10100900F0A3C8C582C8CAC583CADFE9DEE780BEC6
:0110A000004F
:00000001FF
